:04040000C5EF05F04F
:08040800046ED8CF05F0E0CF2F
:1004100006F00001E9CF0CF0EACF07F0E1CF08F0D9
:10042000E2CF09F0D9CF0AF0DACF0BF0F3CF12F018
:10043000F4CF13F0FACF14F0F5CF15F0F6CF16F095
:10044000F7CF17F0F8CF18F0FBCF19F000C00EF07F
:1004500001C00FF002C010F003C011F09DAA34EFEC
:1004600002F09EBA77EF02F09DA63AEF02F09EB638
:10047000C2EF02F00EC000F00FC001F010C002F099
:1004800011C003F00CC0E9FF07C0EAFF078E08C0E7
:10049000E1FF09C0E2FF0AC0D9FF0BC0DAFF12C0BA
:1004A000F3FF13C0F4FF14C0FAFF15C0F5FF16C028
:1004B000F6FF17C0F7FF18C0F8FF19C0FBFF045084
:1004C00006C0E0FF05C0D8FF1000070E016EE46B08
:1004D000E3C000F00050E41B0032012EFBD79EA8C1
:1004E000FED7E4B1E38FE3C0AEFF8EEF02F0036A04
:1004F0009C511C0FE96E000E0320EA6E9EAAFED7E7
:10050000AFCFEFFF036A9C511C0FE96E000E032072
:10051000EA6EEFCFE2F0E2C0E3F0D7D7036A9C5176
:100520001C0FE96E000E0320EA6EEF500D0814E177
:10053000010E9C25E26FEA6A5C0EE96EE26A1C0E0F
:10054000E16EE251016E04E0E6CFEEFF012EFCD732
:100550009CC09DF09C6B1B809C513F0802E1000EEB
:1005600002D0010E9C259C6F9E9A3AEF02F0C95072
:10057000E5C0C9FFC6889E96C7B0FED7016AC6B857
:10058000012A1200C7BA03D0AF6BC7B4AF8FAF5107
:10059000AF2BE36FE3517F081BE3C69C9EA6FED7FB
:1005A000C950C688E26FE32D03D0E2C09EF010D0A0
:1005B000E35101080DE29E510F080AE3036A9E51C0
:1005C0009F0FE96E000E0320EA6EE2C0EFFF9E2B44
:1005D000E3517F0813E29E510F080EE3036A9E5118
:1005E0009F0FE96E000E0320EA6EEFCFE4F0E4C047
:1005F000E5F0BDDF9E2B02D0E569B9DF9E963AEFAC
:1006000002F0DC51070B006EDC31016E0132013269
:100610001F0E01160150DE25E96E000EDF21EA6E85
:10062000016A012A002A01D00136002EFDD7DD53D0
:1006300003E00150EF1203D0011E0150EF1612002B
:10064000D951050DF350DB6BDA6FB40EDA25E96E84
:10065000000EDB21EA6ED851EF5CD8B451D1D851ED
:1006600009E0010A55E0030AD8B4A0D0010AD8B4C1
:10067000ECD038D1D951050DF350DB6BDA6F010E98
:10068000DA25016E000EDB21036E0150B40FE96E16
:10069000000E0320EA6EECCFDBF0ED52EFCFDAF084
:1006A000DAC0DCF0010EDD6F0F0EDF6F890EDE6F3A
:1006B000A8DFDAC0DCF0DD6B0F0EDF6F920EDE6FAD
:1006C000A0DFD951050DF350DB6BDA6F030EDA258D
:1006D000016E000EDB21036E0150B40FE96E000EB7
:1006E0000320EA6EECCFDBF0ED52EFCFDAF0DAC0A8
:1006F000DCF0DD6B0F0EDF6F890EDE6F82DFDAC09C
:10070000DCF0DD6B0F0EDF6F920EDE6F7ADFEBD069
:10071000D951050DF350DB6BDA6F010EDA25016E4E
:10072000000EDB21036E0150B40FE96E000E0320B2
:10073000EA6EECCFDBF0ED52EFCFDAF0DAC0DCF0AE
:10074000DD6B0F0EDF6F890EDE6F5BDFDAC0DCF072
:10075000DD6B0F0EDF6F920EDE6F53DFD951050D8B
:10076000F350DB6BDA6F030EDA25016E000EDB212E
:10077000036E0150B40FE96E000E0320EA6EECCF59
:10078000DBF0ED52EFCFDAF0DAC0DCF0010EDD6F16
:100790000F0EDF6F890EDE6F34DFDAC0DCF0DD6B49
:1007A0000F0EDF6F920EDE6F2CDF9DD0D951050D3D
:1007B000F350DB6BDA6F010EDA25016E000EDB21E0
:1007C000036E0150B40FE96E000E0320EA6EECCF09
:1007D000DBF0ED52EFCFDAF0DAC0DCF0010EDD6FC6
:1007E0000F0EDF6F890EDE6F0CDFDAC0DCF0DD6B21
:1007F0000F0EDF6F920EDE6F04DFD951050DF3503F
:10080000DB6BDA6F030EDA25016E000EDB21036E5F
:100810000150B40FE96E000E0320EA6EECCFDBF05E
:10082000ED52EFCFDAF0DAC0DCF0010EDD6F0F0E23
:10083000DF6F890EDE6FE5DEDAC0DCF0DD6B0F0EF8
:10084000DF6F920EDE6FDDDE4ED0D951050DF35015
:10085000DB6BDA6F010EDA25016E000EDB21036E11
:100860000150B40FE96E000E0320EA6EECCFDBF00E
:10087000ED52EFCFDAF0DAC0DCF0DD6B0F0EDF6F98
:10088000890EDE6FBEDEDAC0DCF0DD6B0F0EDF6FCF
:10089000920EDE6FB6DED951050DF350DB6BDA6FC9
:1008A000030EDA25016E000EDB21036E0150B40F3A
:1008B000E96E000E0320EA6EECCFDBF0ED52EFCFD5
:1008C000DAF0DAC0DCF0DD6B0F0EDF6F890EDE6F61
:1008D00098DEDAC0DCF0DD6B0F0EDF6F920EDE6F9C
:1008E00090DE01D000D0D951050DF350DB6BDA6FEB
:1008F000B40EDA25E96E000EDB21EA6ED8C0EFFFF8
:10090000E1EF04F0EA6ADB0EE96EEF500EE00F0E45
:10091000016E006A002EFED7012EFBD78F0E006EEF
:10092000002EFED70000EF2EF2D71200000E1BB4EF
:10093000010ED95D12E0D95305E0959C8C8C959EF3
:100940008C9E04D0959C8C9C959E8C8E1E0EDB6F8D
:10095000D9DF959C8C9C959E8C9E000E1BB6010E3B
:10096000DA5D12E0DA5305E095988C88959A8C9AB6
:1009700004D095988C98959A8C8A1E0EDB6FC2DFF6
:1009800095988C98959A8C9A1B94D9B11B841B9638
:10099000DAB11B86FEEF04F0D591D593D66BD66BFA
:1009A000D651050810E3036AD6519F0FE96E000E79
:1009B0000320EA6EEFCFD7F0D7C0D8F0D6C0D9F079
:1009C0003FD6D62BEDD7A5A102D0010E01D0000E47
:1009D000D591E8B0D581A6A102D0010E01D0000EBC
:1009E000D593E8B0D583000ED5B1010ED76F000EB8
:1009F000D5B3010ED7C0D9F0DA6F98D7A7AF02D020
:100A0000010E01D0000E1B92E8B01B82B1C0A8F00D
:100A1000B0C0A9F0B3C0AAF0B2C0ABF0AC510F0B9C
:100A200003E193948A9409D0AC510F0B010803E1C0
:100A300093948A8402D093948A74AC51F00B03E1AE
:100A400093968A9609D0AC51F00B100803E1939667
:100A50008A8602D093968A7612007C0EB66F120EAA
:100A6000B56F7C0EB86F180EB76F7C0EBB6F110E92
:100A7000BA6F7C0EBD6F100EBC6F7C0EC06F060E81
:100A8000BF6F7C0EC26F070EC16F7C0EC56F220E4A
:100A9000C46F7C0EC76F210EC66F7C0ECA6F200E0E
:100AA000C96F7C0ECC6F050ECB6F7C0ECF6F020E24
:100AB000CE6F7C0ED16F010ED06FD26BD2510F086A
:100AC0000AE3036AD2519F0FE96E000E0320EA6E1B
:100AD000EF6AD22BF3D760DF7CEF05F093948A8422
:100AE00093968A969D8A9D86F28CC00EF21295820C
:100AF000010E7C6E868EB1D790EF06F05C500A082E
:100B000042E19D5102083FE2D46BD36B010ED26FDC
:100B1000010E9D5DD25D0DE2036AD2515C0FE96E5C
:100B2000000E0320EA6EEF50D327000ED423D22B01
:100B3000EFD73F0ED317D46B200ED327000ED4234C
:100B4000010E9D5D036A5C0FE96E000E0320EA6EE4
:100B5000D351EF5C18E1D45316E15D50410813E125
:100B60005E50440810E15F5050080DE16051530899
:100B70000AE16151200807E19F6BA06BA16BA26B9A
:100B8000A36BA46B09DF95EF06F0F86AD09E078E81
:100B9000EA6AE96A7E860F0EB06E270E7F6EA60E99
:100BA000AD6E900EAC6E9388938AA00EC86E360E12
:100BB000C66EC5801B909C6B9D6B030EAF6F7E86CF
:100BC0000F0EB06E270E7F6EA60EAD6E900EAC6E41
:100BD0001B82B16BB06BB36BB26B1B841B860101C4
:100BE000886BFF0E0F01486FC29CC29E4951E00BFB
:100BF0001F09496F256BD16AD26A1C6A1D6A1E6A79
:100C00001F6A206A216A226A236A246A256A266A80
:100C1000276A286A296A2A6A2B6A2C6A2D6A2E6A30
:100C20002F6A306A316A326A336A346A356A366AE0
:100C3000376A386A396A3A6A3B6A3C6A3D6A3E6A90
:100C40003F6A406A416A426A436A446A456A466A40
:100C5000476A486A496A4A6A4B6A4C6A4D6A4E6AF0
:100C60004F6A506A516A526A536A546A556A566AA0
:100C7000576A586A596A5A6A5B6A5C6A5D6A5E6A50
:100C80005F6A0001606B616B626B636B646B656BC9
:100C9000666B676B686B696B6A6B6B6B6C6B6D6BB0
:100CA0006E6B6F6B706B716B726B736B746B756B60
:100CB000766B776B786B796B7A6B7B6B7C6B7D6B10
:100CC0007E6B7F6B806B816B826B836B846B856BC0
:100CD000866B876B886B896B8A6B8B6B8C6B8D6B70
:100CE0008E6B8F6B906B916B926B936B946B956B20
:100CF000966B976B986B996B9A6B9B6B9F6BA06BCA
:100D0000A16BA26BA36BA46BA56BA66BA76BA86B67
:100D1000A96BAA6BAB6BAC6BAD6BAE6B1B90DED6ED
:100D20001BA004D01BA202D0E9D61B9035DE0A0E10
:080D3000DB6FE8DDF5D70300DD
:020000040001F9
:08FFF800ACF7FAF9FFFBFFFB77
:00000001FF
;PIC18F47J53
;CRC=516E  CREATED="07-oct.-15 20:02"
