:0400000082EF01F09A
:0600080004EF02F01200FB
:060018000CEF02F01200E3
:06002A00958483B4FED7AB
:10003000080E006E456A008E10D0009E0ED045C09E
:1000400002F0D89083B4D8800232008C06D0009C95
:10005000002EF7D702C001F00CD01C0E00BE070E18
:10006000016E012EFED7000000BEE7D700BCEFD71F
:10007000E8D712004D6A4C6A4C5001081CE34AC094
:10008000E9FF4BC0EAFFEFCF4EF04E50400805E2CB
:10009000410E4E5C0A0F4E6E02D0300E4E5E4D3851
:1000A000006EF00E001600504E104D6E4A2AD8B465
:1000B0004B2A4C2AE1D74DC001F01200486A496A28
:1000C000040E4724495C01E00DE246C04BF045C0F8
:1000D0004AF0D0DF01504826020E4526000E462287
:1000E000492AEED748C001F01200949C8B9C080E60
:1000F000016E00D00000018E0ED0019E4532D8B0B6
:100100008B8CD8A08B9C018C06D0019C012EF6D73D
:1001100000D000008B8C1C0EE96EE92EFED700D0BB
:1001200001BEEBD701BCF1D71200F250036EF29E74
:10013000A6840F01550EA76EAA0EA76EA682000018
:100140000350F21200011200D08CF6503F0B006EEB
:10015000C00EF6160A0045C001F000660BD0F6503E
:10016000010F08E1000EF720030B04E1A688090047
:10017000DCDF0A00006607D0EECFF5FF015204E095
:100180000F00010603D000060B000C003F0EF61412
:100190003F0AE3E1CADF0166E0D7F86A12000B6AA2
:1001A0004290446A436A42B0ACD00E6A3EDF01C05E
:1001B00041F0036A0E500F0FE96E000E0320EA6E45
:1001C00041C0EFFF0E2A41500A08F0E14B6A100EC1
:1001D0004A6E50DF01C00CF0466A100E456E0CC02E
:1001E00047F06CDF015204E0150E456E7EDF88D0CB
:1001F0004B6A120E4A6E3EDF01C045F04B6A140E88
:100200004A6E38DF45C00AF001C009F0086A0BC029
:1002100007F009C005F00AC006F04B6A160E4A6ED8
:1002200029DF01C00DF00D525BE10B502F0857E3A1
:10023000085205E1075203E10650030850E20E6A36
:100240000C500E5C23E2036A0E500F0F016E000E7D
:10025000032201C045F003C046F0D8900E34090FC8
:10026000036A0F0F016E000E032201C047F003C0A6
:1002700048F003C04BF001C04AF0FCDE46C0EAFF84
:1002800045C0E9FF01C0EFFF0E2ADAD74350095CF1
:1002900003E144500A5C11E00950010B006E036A4F
:1002A000005003100AE0D08C07C0F8FF06C0F7FF2B
:1002B00005C0F6FFA68839DFF86A010E0924436EEF
:1002C000000E0A20446E07C0F8FF06C0F7FF05C005
:1002D000F6FFEA6A0F0EE96E0CC045F035DF0DD06F
:1002E0000D2C02D0428009D00D50040806E14B6A63
:1002F0001A0E4A6EBFDE01C00BF0060E456EF5DE2B
:1003000052D71200F86AD09EEA6AE96A949C8B8CF4
:100310009388938AA00EC86E360EC66EC580949CD4
:100320008B8C0101886BFF0E0F01486FC29CC29E2F
:100330004951E00B1F09496F256BD16AD26AC290FF
:10034000938881A80AD0938A81BA07D093948A842B
:1003500093968A86000123DF0F01000100EF02F06F
:02036000030098
:04040000FFD7120010
:020000040001F9
:08FFF800ACF7FAFFFFFBFFFB71
:00000001FF
;PIC18F47J53
;CRC=B554  CREATED="30-sept.-15 20:42"
